:020000040800F2
:10000000F8080020FD2B0008DD4C0008FF4C00081C
:1000100000000000000000000000000000000000E0
:10002000000000000000000000000000034D000878
:100030000000000000000000074D0008094D000806
:100040000F2C00080F2C00080F2C00080F2C0008A4
:100050000B4D00080F2C0008474E00085B4E0008AF
:100060000F2C00080F2C00080F2C00080F2C000884
:100070004F4D0008D54E0008ED4E0008154F000802
:100080002B50000857500008000000000F2C0008FB
:10009000E35600080F2C00080F2C00080F2C000856
:1000A0000F2C00080F2C00080F2C0008714D0008C1
:1000B000C94D0008000000000F2C000800000000DF
:1000C00000F002F800F030F80CA030C8083824180E
:1000D0002D18A246671EAB4654465D46AC4201D180
:1000E00000F022F87E460F3E0FCCB6460126334282
:1000F00000D0FB1AA246AB463343184778A2000053
:1001000098A200000023002400250026103A01D305
:1001100078C1FBD8520700D330C100D50B607047BF
:100120001FB51FBD10B510BD07F0CEFD1146FFF77E
:10013000F7FF04F0CBF907F0E6FD03B4FFF7F2FF99
:1001400003BC07F019FE000070B505460C461646C4
:1001500002E00FCC0FC5103E102EFAD2082E02D3AB
:1001600003CC03C5083E042E07D301CC01C5361FBE
:1001700003E021782970641C6D1C761EF9D270BDD5
:100180000CB500200190009073480068012109041B
:1001900008437149086000BF6F48006801214904A5
:1001A000084000900198401C01900098002804D15C
:1001B0000521090201988842EED1674800680121B3
:1001C00049040840002802D00120009001E00020EE
:1001D00000900098012839D11120604908605E48DC
:1001E00040685D4948600846406848600846406885
:1001F0003F21090488435849486008464068112156
:10020000090408435449486008460068012109066A
:1002100008435149086000BF4F4800680121490662
:1002200008400028F8D04C484068800880004A49BF
:10023000486008464068022108434749486000BFBB
:10024000454840680C2108400828F9D10CBD10B57C
:1002500041480068012108433F490860084640685A
:100260003F4908403C494860084600683D4908400D
:1002700039490860084600680121890488433649E5
:100280000860084640683F210904884332494860B5
:100290000846C06A00090001C8620846006BFF21D9
:1002A000543188432C4908630846406B400840009D
:1002B000486300208860FFF763FF10BDF8B5002594
:1002C000002400260027244840680C2108400546E9
:1002D000002D04D0042D06D0082D2AD107E0224895
:1002E0002249086029E020482049086025E01A4892
:1002F00040680F21890408400446174840680121DE
:10030000090408400646A00C841C002E04D118489D
:100310006043164908600BE00F48C06A0007000FF1
:10032000471C3946104806F07AFC60430F490860C4
:1003300003E00D480D49086000BF00BF0648406853
:10034000F021084000090B490D5C08480068E840AE
:1003500006490860F8BD000000100240002002407D
:100360000CB8FFF8FFFFF6FE00127A000000002034
:1003700000093D000400002010B50446B548844241
:1003800007D10121401501F0EEFA0021601501F0BE
:10039000EAFA10BD10B50022C268AF4B1A400C79C2
:1003A00064030B6823438C682343CC6823430C69A4
:1003B00023434C6923431A43C26010BD00210160EE
:1003C00001718160C160016141617047002904D001
:1003D000826801231A43826003E0826802231A4381
:1003E00082607047002A03D003690B43036102E077
:1003F00003698B4303617047002905D0C26801235C
:10040000DB031A43C26004E0C2680123DB039A43A2
:10041000C2607047002905D0C26801239B031A43BC
:10042000C26004E0C26801239B039A43C260704724
:10043000002905D0C2680123DB051A43C26004E02D
:10044000C2680123DB059A43C26070470B04134363
:100450000362704710B50A460021C1681F24A40634
:100460000B46A34319460B4613431946C16010BD02
:10047000002905D0C26801239B051A43C26004E02D
:10048000C26801239B059A43C2607047002807D0C9
:10049000724989680122D2051143704A916006E0D1
:1004A0006E4989680122D20591436C4A9160704778
:1004B000002807D069498968012292051143674ADB
:1004C000916006E065498968012292059143634A7B
:1004D00091607047002807D06049896801221206A0
:1004E00011435E4A916006E05C4989680122120668
:1004F00091435A4A9160704710B50B460021846AB7
:100500001C43846200BF0C4614432146416110BD68
:10051000002905D0C26801235B031A43C26004E0CE
:10052000C26801235B039A43C2607047002905D06B
:10053000C26801231B041A43C26004E0C26801239D
:100540001B049A43C2607047002905D0C26801238A
:100550001B031A43C26004E0C26801231B039A43D1
:10056000C260704730B501460020002200238C682D
:100570000125ED072C438C6000BF8C68E30FDB077F
:10058000521C0F242403A24201D0002BF5D18C6809
:10059000E40FE407002C01D1086C00E0002030BD1E
:1005A00081681022114381607047816804221143E1
:1005B000816070470146086C80B27047002904D002
:1005C000C26801231A43C26003E0C26852085200A5
:1005D000C2607047C26802239A43C260C2680A437D
:1005E000C2607047002A03D043680B43436002E0B7
:1005F00043688B434360704730B5024600200023B8
:10060000012424060C40002C05D0946801252D06F9
:10061000AC43234600E013681C460C40002C01D07C
:10062000012000E0002030BD0160704710B5024697
:100630000020002354680C40234614680C40002C12
:1006400003D0002B01D0012000E0002010BD01608C
:10065000704700000024014003D2FFFF0027014043
:1006600000203749C861704710B50022344BDA6961
:10067000344B834014469C4322464C680B6823430A
:100680008C682343CC6823430C69234383401A437B
:100690002B4BDA6110BD0021016041608160C160B7
:1006A0000C2101617047002907D0254AD269012336
:1006B00083401A43224BDA6106E0214AD2690123C2
:1006C00083409A431E4BDA617047002806D01C49CC
:1006D000C969022211431A4AD16105E01849C96962
:1006E00002229143164AD161704701460020144A04
:1006F000D26901239B038B401A40002A02D00120BB
:10070000800300E000207047002807D00C49C96929
:100710000122D20511430A4AD16106E00849C9699C
:100720000122D2059143064AD16170470449C96943
:100730000122D20382401143014AD1617047000077
:1007400000000140FE3F000010B50121480701F004
:1007500018F900210120400701F013F910BD30B550
:1007600000220023564C22683E2484401546A543AF
:100770002A464D680C682C4323461C46844022437D
:100780004F4C226030BD002101604160704700295C
:1007900007D04B4A1268012383401A43484B1A6022
:1007A00006E0474A1268012383409A43444B1A608B
:1007B000704710B5002908D0414A52680409012346
:1007C000A3401A433E4B5A6007E03D4A5368040970
:1007D0000122A24093433A4A536010BD08B500225B
:1007E0000092374A009202460832009BD2180092CB
:1007F000009A116008BD08B50146002000903048FD
:10080000009088082C30009A8018009000980068AA
:1008100080B208BD002908D0294A126801231B03B1
:1008200083401A43264B1A6007E0254A12680123C9
:100830001B0383409A43224B1A60704710B5002A6D
:1008400007D01F4B1B680C46844023431C4C23607D
:1008500006E01B4B1B680C468440A343184C2360E6
:1008600010BD10B502460020154B5B6B0C46944042
:100870002340002B01D0012000E0002010BD0A46DB
:1008800082400F4B5A63704730B502460020002368
:100890000B4C24680D4695402C402346084C646B55
:1008A0000D4695402C40002C03D0002B01D0012098
:1008B00000E0002030BD0A468240014B5A63704779
:1008C000007400400168584A114001600021016035
:1008D00041608160C1605549884208D15349083957
:1008E00049680F221143514A083A516035E04F4997
:1008F0001431884208D14D4908394968F022114322
:100900004A4A083A516028E048492831884209D1CA
:100910004649083949680F2212021143434A083AEE
:1009200051601AE041493C31884209D13F490839B8
:1009300049680F22120311433C4A083A51600CE007
:100940003A495031884208D13849083949680F225C
:1009500012041143354A083A5160704710B500221D
:100960000268334B1A400C6A8B6823430C6923439B
:100970004C6923438C692343CC6923434C6A23434A
:100980008C6A23431A430260CB6843600B68836020
:100990004B68C36010BD0021016041608160C1608F
:1009A000016141618161C16101624162816270479F
:1009B000002904D0026801231A43026003E00268A0
:1009C000194B1A4002607047416070470146486801
:1009D00080B27047002A03D003680B43036002E033
:1009E00003688B4303607047014600200F4A083AB2
:1009F00012680A40002A01D0012000E00020704760
:100A00000A4908394860704701460020074A083AF9
:100A100012680A40002A01D0012000E0002070473F
:100A20000249083948607047FEFF00000800024094
:100A30000F80FFFF3E483F49086000204860886003
:100A4000C8603D484861704700213A498279002AD0
:100A500035D00A46126803689A430B461A600A4664
:100A6000526803689A430B465A60027951180A6823
:100A700003681A430A602F4A926803689A432D4B11
:100A80009A601A46D26803689A432A4BDA60427920
:100A9000102A0CD11A46926803681A43254B9A60B3
:100AA0001A46D26803681A43224BDA600DE02149E6
:100AB000427951180A6803681A430A6005E002790E
:100AC00051180A6803689A430A6070470021016060
:100AD00001710C214171002181717047154909692B
:100AE0000143144A1161704701460020114A5269BE
:100AF0000A40002A01D0012000E0002070470D4983
:100B0000486170470146002000220A4B1B680B40D9
:100B10001A46084B5B690B40002B03D0002A01D01A
:100B2000012000E000207047024948617047000042
:100B30000000940F00040140FFFF6B0001460020FD
:100B4000FE4A10684008400002460A431046FB4A2D
:100B500010607047002806D0F84909681022114338
:100B6000F64A116005E0F549096810229143F34AFD
:100B7000116070470020F1490968202211400029C6
:100B800001D0012000E000207047EC48006980217E
:100B90000840002804D0EA48E8494860E94848602D
:100BA0007047E648006980210843E44908617047BE
:100BB0000146042000BF042812D1E04A1269022332
:100BC0001A43DE4B1A611A465161126940231A43D7
:100BD000DA4B1A611A46126902239A43D74B1A61FB
:100BE00070470420D549C968C907C90F002901D039
:100BF000012010E0D149C96810221140002901D01C
:100C0000022008E0CD49C96804221140002901D022
:100C1000032000E00420704710B503460424FFF7CA
:100C2000E0FF044603E0FFF7DCFF04465B1E012CF7
:100C300001D1002BF7D1002B00D10524204610BD97
:100C400010B504240B200004FFF7E6FF0446042C33
:100C500016D1BA48006904210843B849086108461A
:100C6000006940210843B54908610B200004FFF7E3
:100C7000D3FF0446B148006904218843AF490861A5
:100C8000204610BD78B506460C460425002000908D
:100C90000B200004FFF7C0FF0546042D24D1A74810
:100CA000006901210843A549086134800B20000434
:100CB000FFF7B2FF0546042D10D1B01C0090200CA8
:100CC000009908800B200004FFF7A6FF05469B480B
:100CD0000069400840009949086105E097480069AB
:100CE0004008400095490861284678BD70B5044623
:100CF0000D4604260B200004FFF78EFF0646042E47
:100D000011D18E480069012108438C490861258072
:100D10000B200004FFF780FF064688480069400862
:100D2000400086490861304670BD84480069012151
:100D300049020840002804D18148804988608148E0
:100D4000886070477D4800690121490288437B49DA
:100D500008617047794800690121490308437749D0
:100D60000861704700207549C969062211400029B1
:100D700001D0012000E00020704730B5AA250424EE
:100D8000FFF7F0FF002800D000250B200004FFF73C
:100D900043FF0446042C36D16848006920210843EB
:100DA00066490861084600694021084363490861B3
:100DB0000B200004FFF730FF0446042C1BD15F48D2
:100DC0000069202188435D490861084600691021B7
:100DD00008435A4908615C4805800B200004FFF76E
:100DE0001BFF0446052C0ED054480069102188438F
:100DF0005249086107E0052C05D0504800691021D0
:100E000088434E490861204630BDF0B504464F4E38
:100E100037460425E443E6B2FF2000022040070ADB
:100E20000B200004FFF7F8FE0546042D21D14348AE
:100E300000691021084341490861FF2E06D042484D
:100E400006810B200004FFF7E7FE0546042D08D1BC
:100E5000FF2F06D03C4847810B200004FFF7DCFE43
:100E60000546052D05D035480069102188433349D2
:100E700008612846F0BD30B5054604240B20000467
:100E8000FFF7CAFE0446042C36D12C480069202105
:100E900008432A4908610846006940210843274958
:100EA00008610B200004FFF7B7FE0446042C1BD199
:100EB00022480069202188432049086108460069CA
:100EC000102108431D4908611F4805800B200004BC
:100ED000FFF7A2FE0446052C0ED018480069102129
:100EE00088431649086107E0052C05D013480069BE
:100EF0002021884311490861204630BDF0B50546E0
:100F00000E46174604240B200004FFF785FE044616
:100F1000042C24D1094800691021084307490861BD
:100F200028463043F82139430843074948800B20BD
:100F30000004FFF771FE0446052C09E00020024082
:100F400023016745AB89EFCD00F8FF1FFFFF0000CD
:100F500005D06C480069102188436A490861204621
:100F6000F0BD30B5054604240B200004FFF754FE05
:100F70000446042C16D163480069102108436149D6
:100F80000861EF202843604948800B200004FFF7E8
:100F900043FE0446052C05D05A48006910218843B9
:100FA00058490861204630BD30B5054604240B2061
:100FB0000004FFF731FE0446042C16D151480069A5
:100FC000102108434F490861DF2028434E494880DB
:100FD0000B200004FFF720FE0446052C05D04948ED
:100FE00000691021884347490861204630BD30B56B
:100FF000054604240B200004FFF70EFE0446042CD3
:1010000016D140480069102108433E490861BF20BD
:1010100028433D4948800B200004FFF7FDFD0446AE
:10102000052C05D0374800691021884335490861EF
:10103000204630BD30B5054604240B200004FFF7E0
:10104000EBFD0446042C16D12E48006910210843FC
:101050002C490861882028432B4948800B20000434
:10106000FFF7DAFD0446052C05D02648006910215B
:10107000884324490861204630BD70B505460E46B8
:1010800004240B200004FFF7C7FD0446042C13D1F1
:101090001C480069102108431A4908612E800B2062
:1010A0000004FFF7B9FD0446052C05D0154800697A
:1010B0001021884313490861204670BD1148C0695A
:1010C0000004000E70470F48006A7047002905D0E1
:1010D0000C4A126902430B4B1A6104E0094A126977
:1010E0008243084B1A61704701460020054AD268C6
:1010F0000A40002A01D0012000E000207047014989
:10110000C86070470020024000F8FF1F10B5044679
:101110000920C006844209D10121480400F015FCD1
:1011200000210120400400F010FC30E06E488442B1
:1011300008D10121000200F008FC0021200200F08B
:1011400004FC24E06948844208D10121000200F037
:10115000FCFB0021200200F0F8FB18E06448844208
:1011600009D10121080500F0F0FB00210120000554
:1011700000F0EBFB0BE05F48844208D101218805B9
:1011800000F0E3FB00210120800500F0DEFB10BD34
:10119000F0B50A4600210023002400BF3DE00125F0
:1011A0008D402B4615681D402C469C4234D1157944
:1011B000012D02D01579022D16D185684F00032626
:1011C000BE40B543856055794E00B54086683543CD
:1011D0008560858801268E40B5438580858896790F
:1011E0008E40B6B23543858005684F000326BE4069
:1011F000B543056015794E00B54006683543056076
:10120000C5684F000326BE40B543C560D5794E0082
:10121000B540C6683543C560491C1029BFD3F0BD31
:101220003549016000210171022141710021817164
:10123000C171704708B5012212040092009A0A4356
:101240000092009AC261C161009AC261C2690092B3
:10125000C269009208BD02460020138A0B40002B91
:1012600001D0012000E0002070470146088A704745
:1012700002460020938A0B40002B01D0012000E0A1
:10128000002070470146888A704781617047018558
:101290007047002A01D0816100E00185704781829A
:1012A0007047F0B5002300244D07EE0E1546B540FB
:1012B0002B46CD10AE0005462035AD594E07F70E32
:1012C0000F26BE40B543CE10B60007462037BD51AD
:1012D000CD10AE003D46AD591D432C46CD10AD009E
:1012E0003E467451F0BD000000040048000800486C
:1012F000000C004800140048FFFF00000F49086080
:1013000070470E49486070470C49886070470C4828
:101310000A49086070470949086170470948074948
:101320000860704701460020044AD2680A40002A3B
:1013300001D0012000E00020704700000030004094
:10134000AAAA0000CCCC000000218278002A27D075
:10135000274A03231B02D21803789B109B00D15805
:1013600002789207D30EFF229A400B469343194608
:1013700042789207120E03789B07DB0E9A401143C6
:101380001B4A03231B02D21803789B109B00D150E9
:101390000278D306DB0E01229A40154B1A6007E053
:1013A0000278D306DB0E01229A40114B80331A607B
:1013B0007047002905D00F4A126902430D4B1A618C
:1013C00004E00C4A126982430A4B1A6170470428F0
:1013D00006D10949096904221143074A116105E050
:1013E0000549096904229143034A116170470000CD
:1013F00000E100E000ED00E000E000E0FD480068F2
:1014000001210843FB49086008464068FA49084042
:10141000F849486008460068F8490840F5490860FE
:1014200008460068012189048843F249086008469B
:1014300040683F2109048843EE4948600846C06A75
:1014400000090001C8620846006BFF21543188433F
:10145000E84908630846406B4008400048630020A4
:10146000886070470021E34A917011468870704788
:1014700010B502460021002300205111002902D19D
:10148000DC4C23680BE0012902D1DA4C236A06E028
:10149000022902D1D74C636A01E0D64C636BD106B6
:1014A000C90E01248C401C40002C01D0012000E01A
:1014B000002010BD38B5002000900024002500BF9A
:1014C0001120FFF7D5FF05460098401C009005212C
:1014D00009020098884201D0002DF1D01120FFF7B9
:1014E000C7FF002801D0012400E00024204638BDB9
:1014F00001460020BF4A1068F82302469A4310466E
:10150000CA001043BB4A10607047002806D0B94992
:10151000096801221143B74A116005E0B54909681D
:1015200049084900B34A1160704701460020B14A9A
:10153000506BF82302469A431046CA001043AD4A46
:1015400050637047002806D0AA49496B0122114315
:10155000A84A516305E0A749496B49084900A54AD3
:1015600051637047002806D0A249496B0422914379
:10157000A04A516305E09F49496B042211439D4AEB
:10158000516370479B49096A49084900994A1162A9
:101590001146096A04229143964A11621146096A6A
:1015A0000143116270479349096A18229143914A95
:1015B00011621146096A014311627047002806D082
:1015C0008C49496A012211438A4A516205E08949DE
:1015D000496A49084900874A51627047854A5268FA
:1015E0003D231B049A43834B5A601A4652680346B4
:1015F0000B431A437F4B5A607047002807D07D4940
:1016000009680122120611437A4A116006E07949FD
:101610000968012212069143764A1160704701461B
:101620000020744AD06A0009000102460A431046AD
:10163000704AD0627047002807D06E4909680122BD
:10164000D20411436B4A116006E06A49096801221D
:10165000D2049143674A116070476649C871704768
:1016600001460020634A50688008800002460A4311
:101670001046604A506070475E4840680C21084040
:101680007047014600205B4A5068F02302469A43A7
:10169000104602460A431046564A506070470146BB
:1016A0000020544A506807231B0202469A43104602
:1016B00002460A4310464F4A506070474D494968F8
:1016C0000122920391434B4A51601146496882B20C
:1016D0001143484A51601146096B92159143454A9E
:1016E00011631146096B020C1143424A11637047A2
:1016F0004049096B402291433E4A11631146096BF0
:101700000143116370473B49096B10229143394AE9
:1017100011631146096B0143116370473549096B29
:1017200089088900334A11631146096B014311632B
:101730007047FEB504460025002600200190009069
:1017400000272C4840680C2108400546002D04D095
:10175000042D05D0082D28D105E02948206027E078
:101760002748206024E0234840680F21890408406E
:101770000646204840680121090408400190B00C49
:10178000861C0198002803D11E48704320600BE09E
:101790001848C06A0007000F401C009018480099C4
:1017A00005F03DFA7043206002E01548206000BF5C
:1017B00000BF10484068F021084005462D09124836
:1017C000475D2068F84060600A48406807210902C8
:1017D000084005462D0A0C48475D6068F840A06047
:1017E0000448006BFF2101310840884210D00748AF
:1017F000E0601BE0001002400CB8FFF8FFFFF6FEAF
:1018000000127A0000093D0014000020809FD500DE
:1018100075484068012189030840884203D0A068C8
:101820004008E06002E0A0688008E0606E48006B5D
:1018300040210840402802D06C48206102E001208D
:10184000C00320616848006B10210840102802D0B6
:101850006748606101E0206860616348006B800751
:10186000800F002802D1A068A06119E05E48006BDB
:101870008007800F012802D12068A06110E05A483B
:10188000006B8007800F022802D18003A06107E06F
:101890005548006B8007800F032801D15448A06190
:1018A000FEBD5149096A01434F4A11627047002841
:1018B00007D04D49096A0122D20311434A4A1162F5
:1018C00006E04949096A0122D2039143464A11625E
:1018D0007047002807D04449096A012212041143C5
:1018E000414A116206E04049096A0122120491430B
:1018F0003D4A11627047002905D03B4A52690243B4
:10190000394B5A6104E0384A52698243364B5A6176
:101910007047002905D0344A92690243324B9A61DC
:1019200004E0314A926982432F4B9A617047002943
:1019300005D02D4AD26902432B4BDA6104E02A4AD2
:10194000D2698243284BDA617047002905D0264AC4
:10195000926A0243244B9A6204E0234A926A8243C9
:10196000214B9A627047002905D01F4AD268024372
:101970001D4BDA6004E01C4AD26882431A4BDA60DD
:101980007047002905D0184A12690243164B1A61A4
:1019900004E0154A12698243134B1A61704700290B
:1019A00005D0114A527A02430F4B5A7204E00E4A94
:1019B000527A82430C4B5A7270470B48406A01219D
:1019C0000906084308494862704701460020064A54
:1019D00092680A40002A01D0012000E000207047F0
:1019E0000149887270470000001002401280000018
:1019F00000127A003A4800688007800F3849086072
:101A00000020886000213648C16001614161806921
:101A1000FF210131084332498861704701460020A7
:101A20002F4A10688008800002460A4310462C4A5C
:101A300010607047002905D0294A12680243284BDC
:101A40001A6004E0264A12688243254B1A607047E8
:101A5000002905D0224A12680243214B1A6004E093
:101A60001F4A126882431E4B1A60704730B500222D
:101A70008B071C0F0F23A3401A46194B08338C10F9
:101A8000A4001B599343164C08348D10AD006351CC
:101A900023468C10A4001B598C07250F0446AC402C
:101AA00023430F4C08348D10AD00635130BD0C49F9
:101AB000896901430A4A9161704701460020084A3A
:101AC0009269FF2301331A40002A01D0012000E06F
:101AD00000207047024989690143014A91617047BA
:101AE0000000014010B50446FE48844208D101219F
:101AF000C014FFF738FF0021E014FFF734FF56E071
:101B000001208007844208D101210846FFF739FFF0
:101B100000210120FFF735FF49E0F348844208D156
:101B200001210220FFF72DFF00210220FFF729FFEE
:101B30003DE0EE48844208D101211020FFF721FF4B
:101B400000211020FFF71DFF31E0E948844208D151
:101B500001218015FFF715FF0021A015FFF711FFE8
:101B600025E0E448844209D101210804FFF7FBFE87
:101B7000002101200004FFF7F6FE18E0DE48844251
:101B800009D101214804FFF7EEFE002101204004A5
:101B9000FFF7E9FE0BE0D948844208D1012188040F
:101BA000FFF7E1FE002101208004FFF7DCFE10BDFD
:101BB00000220288CB4B984206D001239B07984213
:101BC00002D0C94B984203D1CD4B1A404B881A43DF
:101BD000C64B984203D0CB4B1A400B891A43028064
:101BE0004B68C3620B880385BE4B984208D0C14B3B
:101BF000984205D0C04B984202D0C04B984201D1C8
:101C00008B7A03860123838270470021C943416098
:101C100000210180018141808172704701858282AB
:101C200070470A4600210188B54B19400B46134303
:101C300019460180704741627047C1627047014692
:101C4000486A70470146088D7047002904D0028811
:101C500002231A43028004E00288A94B6E331A4023
:101C600002807047002904D0028804231A430280AE
:101C700004E00288A24B6C331A40028070470029AE
:101C800004D0028880231A43028004E002889C4B1F
:101C9000103B1A40028070470288994B68331A4003
:101CA000028002880A43028070470288954B1A40DE
:101CB000028002880A4302807047002904D002880B
:101CC00001231A43028004E002888D4B6F331A40CF
:101CD000028070470A884B881A438B881A43CB8846
:101CE0001A430B891A434B891A438B891A4344239D
:101CF0001A5270470021018041808180C18001819A
:101D0000418181817047002907D04422125A012362
:101D1000DB031A4344231A5205E04422125A5304A7
:101D20005B0C44221352704770B50024002200233C
:101D3000058C734E6F3635400584028C8388048B86
:101D40006F4D2C40B51E2C400D882C43751E2A402B
:101D50008D892A434D882A43624DA84208D0654D9B
:101D6000A84205D0644DA84202D0644DA84212D1C9
:101D7000634D68352A40CD892A43614D6C352A4030
:101D80008D882A435E4D903D2B405F4D2B400D8A40
:101D90002B434D8A2B43838004838D6845630284E3
:101DA00070BD70B5002400220023058C544E6036AF
:101DB00035400584028C8388048B544D2C40514D52
:101DC0002C400D782D062D0C2C434D4D50352A40BE
:101DD0008D892D052D0C2A434D882D052D0C2A4368
:101DE000404DA84219D1464D103D2A40CD892D05C0
:101DF0002D0C2A43424D30352A408D882D052D0C5F
:101E00002A43434D2B40434D2B400D8AAD042D0CEE
:101E10002B434D8AAD042D0C2B43838004838D68A6
:101E20008563028470BD70B5002400220023058CF8
:101E3000334E903E35400584028C8388848B304D30
:101E40002C402F4D6D352C400D882C432E4D2A40B3
:101E50000D7B2D062D0C2A438D782D062D0C2A4343
:101E6000204DA84217D12B4D2A408D7B2D062D0CDD
:101E70002A43274D2A400D792D062D0C2A43264D45
:101E80002B40264D2B400D8A2D052D0C2B434D8AC2
:101E90002D052D0C2B43838084838D68C5630284BC
:101EA00070BD70B5002200230024058C1A4E354009
:101EB0000584038C8488828B144D2A40114D2A405E
:101EC0000D782D062D0C2A43144D2B400D7B2D072C
:101ED0002D0C2B438D782D072D0C2B43014DA84243
:101EE00024D11DE0002C01400004004000100040FF
:101EF00000200040004001400044014000480140F3
:101F00008FFF0000FFFC0000FFFD0000FF8F0000BE
:101F1000FFFB0000FFF70000FFEF0000FFDF000005
:101F2000FC4D2C400D8AAD052D0C2C438480828302
:101F30008D680564038470BD00210180418081802B
:101F400081608181C18101824182704770B5034601
:101F5000002000241846183001258D40ACB21D8C9D
:101F6000A5431D84002901D0082909D14D10281846
:101F700005687026B54305600568154305600DE0EA
:101F80000D1F2D046D0C2818056807263603B54370
:101F9000056005681606360C3543056070BD416363
:101FA000704781637047C1637047016470470A4698
:101FB0000021018BD84B19400B461343194601836E
:101FC00070470A460021018BD44B194013061B0CA5
:101FD0001943018370470A460021818BCE4B19407B
:101FE0000B4613431946818370470A460021818BB3
:101FF000CA4B194013061B0C1943818370470029F3
:1020000004D0828801231A43828004E08288C24B74
:102010006F331A40828070470A460021018BBE4B05
:10202000683319400B4613431946018370470A462B
:102030000021018BBA4B194013061B0C1943018375
:1020400070470A460021818BB34B683319400B4619
:1020500013431946818370470A460021818BB04B98
:10206000194013061B0C1943818370470A4600214F
:10207000018BA94B6C3319400B461343194601835E
:1020800070470A460021018BA64B194013061B0C12
:102090001943018370470A460021818B9E4B6C33A4
:1020A00019400B4613431946818370470A460021A5
:1020B000818B9C4B194013061B0C1943818370477D
:1020C0000A460021018B944B103B19400B461343E9
:1020D0001946018370470A460021018B4904490CC7
:1020E00013061B0C1943018370470A460021818B9C
:1020F000894B103B19400B461343194681837047A7
:102100000A460021818B4904490C13061B0C194314
:10211000818370470A460021018C7F4B6E33194042
:102120000B4613431946018470470A460021018C6F
:10213000794B683319400B461343194601847047A5
:102140000A460021018C744B5033194013051B0CB7
:102150001943018470470A460021018C6E4B103BE5
:10216000194013051B0C1943018470470A460021CE
:10217000018C6D4B194013061B0C194301847047E9
:102180000A460021018C664B194013061B0C1943AB
:10219000018470470A460021018C644B19401307E3
:1021A0001B0C19430184704702895B4B68331A404A
:1021B000028102890A430281704730B5002301245D
:1021C0008C40A3B2048C9C430484048C15468D403F
:1021D000ADB22C43048430BD30B5002304248C40C0
:1021E000A3B2048C9C430484048C15468D40ADB28C
:1021F0002C43048430BD002904D0828804231A4370
:10220000828004E08288444B6C331A40828070479D
:10221000828B474B1A408283828B0B061B0C1A431E
:1022200082837047F8B50C460021002500260096F1
:10223000068C404F3E400684818B058C2607360C69
:1022400000963D4E31401606360C31431E07360CC3
:1022500031433A4E354001273F03009E3E4335430C
:1022600081830584F8BD828B2B4B64331A408283B3
:10227000828B0A4382837047F8B50C460021002503
:1022800000260096068C244F903F3E400684818BAA
:10229000058C2606360C00961F4E833E31401E05E7
:1022A000360C16433143264E3540FF270137009E3A
:1022B0003E43354381830584F8BD028B1C4B1A4095
:1022C0000283028B0B061B0C1A4302837047F8B57E
:1022D0000C460021002500260096068C0E4F603724
:1022E0003E400684018B058C2605360C0096124E66
:1022F00031401E07360C31431606360C3143064E6C
:10230000303E35401027009E3E433543018305840F
:10231000F8BD0000FFBF00008FFF0000FF8F00002E
:10232000FFF70000FFFB0000FFFD0000FFDF0000E3
:10233000FFF30000FFEF0000FF0C0000FF5F000054
:10234000FFF50000028BD84B1A400283028B0A4330
:1023500002837047F0B50C4600210025068CD24F51
:102360000B373E400684018B058CCF4EE73E314053
:102370001E05360C16433143CB4EB61C35400126A4
:102380002643354301830584F0BD70B505460C46F0
:10239000208800280AD12389A28861882846FFF76F
:1023A000D9FFE1882846FFF7CDFF25E020880428E3
:1023B0000AD12389A28861882846FFF788FFE1882F
:1023C0002846FFF77AFF17E0208808280AD12389DA
:1023D000A28861882846FFF74FFFE1882846FFF76B
:1023E00042FF09E02389A28861882846FFF71AFF87
:1023F000E1882846FFF70CFF70BD00210180418075
:10240000012181800021C18001817047F8B5054616
:102410000C46002601276088002801D1022600E032
:102420000026A088012801D1022700E0012720888A
:10243000002814D12389A28861882846FFF78AFFE3
:10244000E1882846FFF77EFF23893A463146284631
:10245000FFF73DFFE1882846FFF72FFF13E02389B0
:10246000A28861882846FFF732FFE1882846FFF7F7
:1024700024FF23893A4631462846FFF76BFFE1885F
:102480002846FFF75FFFF8BD0146486B70470146DD
:10249000886B70470146C86B70470146086C7047EF
:1024A000002A03D083890B43838102E083898B4315
:1024B000838170478182704702460020138A0B4057
:1024C000002B01D0012000E000207047CA430282A7
:1024D000704730B50246002000230024158A0D40C5
:1024E0002B4695890D402C46002B03D0002C01D0A3
:1024F000012000E0002030BDCA430282704710B5C1
:102500000B4613434824235210BD002A03D083896D
:102510000B43838102E083898B43838170470029C9
:1025200004D0828808231A43828004E082885E4BAC
:102530001B1D1A408280704701895B4A521D114061
:10254000018170470A4600210189574B643B1940BD
:102550000B46134319460181704730B504460D46BA
:1025600029462046FFF7EEFF2089072108432081F6
:1025700030BDF8B504460D4616461F46602D06D1FF
:102580003B46012231462046FFF7A1FE05E03B46CF
:10259000012231462046FFF7DDFE29462046FFF79F
:1025A000D1FF2089072108432081F8BD30B50C46B2
:1025B00000210189C9B21D062D0C1543254329436D
:1025C000018130BDFFB505460E46174600243A4648
:1025D00031462846039BFFF7E9FF2C893248401D0E
:1025E000044007200443304864380440702004430A
:1025F0002C81FFBDF0B504460D4616461F463B46EE
:10260000324629462046FFF7D1FF20890121890360
:1026100008432081F0BD8288234B643B1A408280AE
:1026200082880A438280704702891F4B5B1D1A40D3
:10263000028102890A430281704702891A4B743B66
:102640001A40028102890A4302817047F0B50C46A4
:102650000021002500260189058B068C124F7F1D65
:1026600039400F4627433946104F3D40FF27023778
:102670003D430D4F9E3F3E401F053F0C17433E43D9
:10268000018105830684F0BD002904D0828880235F
:102690001A43828004E08288034B743B1A40828094
:1026A0007047502211527047F3FF0000FCFC0000FD
:1026B00010B50446F648844209D101218803FFF78A
:1026C00052F9002101208003FFF74DF90BE0F1489A
:1026D000844208D101214804FFF753F90021012069
:1026E0004004FFF74EF910BDF0B589B004460D4621
:1026F0000027002008900026206840084000206045
:10270000666803210903304688430646A8680643E5
:1027100066602668E0480640E968686808432969F9
:10272000084306432660A668032109023046884311
:10273000064668690643A66001A8FEF7FAFFD4487A
:10274000844202D10798089001E00398089020681D
:102750000121C903084000280CD02968089A5000BC
:1027600004F05DFA07462968089A500004F057FA09
:102770000E4609E02968089804F051FA07462968CE
:10278000089804F04CFA0E4628684008B04200D879
:102790007F1C20680121C9030840002806D03807A3
:1027A000460F3846BD49084030430746A78109B067
:1027B000F0BD4B21C9010160002141608160C16011
:1027C0000C21016100214161704710B5002242686F
:1027D0000F2424021346A3431A464C680B68234374
:1027E0008C682343CC6823431A43426010BD002108
:1027F000016041608160C1607047002904D00268B7
:1028000001231A43026003E002685208520002608A
:102810007047002A03D003680B43036002E003689B
:102820008B4303607047002905D002680123DB0356
:102830001A43026004E002680123DB039A4302604A
:102840007047002905D082680123DB021A438260A9
:1028500004E082680123DB029A438260704700290A
:1028600005D042680123DB041A43426004E0426859
:102870000123DB049A4342607047002905D0426877
:1028800001239B041A43426004E0426801239B0435
:102890009A4342607047002A03D043680B43436069
:1028A00002E043688B4343607047002905D04268CB
:1028B0000123DB031A43426004E042680123DB0387
:1028C0009A4342607047002905D042680123DB0526
:1028D0001A43426004E042680123DB059A434260E8
:1028E00070474269120E1206426142690A43426110
:1028F0007047028AFF231B021A400282028A0A439F
:1029000002827047002904D0026802231A43026041
:1029100003E0026802239A4302607047826803233F
:102920001B059A43826082680A43826070470029CF
:1029300005D0426801231B051A43426004E0426847
:1029400001231B059A4342607047426803235B05DD
:102950009A43426042680A4342607047CA05D20DFA
:10296000028570470146888CC005C00D70474268DB
:102970001202120A426042680B061A434260704714
:10298000002905D0026801235B031A43026004E0BA
:10299000026801235B039A430260704702680123C7
:1029A000DB029A43026002680A4302607047426891
:1029B00010239A43426042680A434260704742686B
:1029C00020239A43426042680A43426070470029CC
:1029D00005D0426801239B031A43426004E0426829
:1029E00001239B039A4342607047002904D0826808
:1029F00008231A43826003E0826808239A438260B6
:102A00007047028AD2B20282028A0B021A43028201
:102A10007047002904D0826820231A43826003E0B3
:102A2000826820239A4382607047002904D082681C
:102A300010231A43826003E0826810239A43826065
:102A40007047826807235B049A43826082684B0464
:102A50001A438260704742691202120A4261426957
:102A60000B061A4342617047826804239A438260CE
:102A700082680A4382607047002904D0826802237A
:102A80001A43826003E0826802239A43826070479F
:102A90000038014000440040F3E9FFFFF0FF000070
:102AA000002905D0826801239B031A43826004E059
:102AB000826801239B039A438260704782680123E6
:102AC000DB039A43826082680A438260704702682F
:102AD0001F235B059A43026002684B051A4302609C
:102AE000704702681F231B049A43026002680B04AC
:102AF0001A4302607047002A03D083680B43836047
:102B000002E083688B4383607047826801235B0324
:102B10009A43826082680A4382607047F8B5034630
:102B20000024002600960025002018460E04340ECE
:102B3000CEB200960127009EB7403D46022C01D13F
:102B4000001D02E0032C00D10830002A03D00668E3
:102B50002E43066002E00668AE430660F8BD002A18
:102B600003D0038B0B43038302E0038B8B4303836C
:102B70007047826801231B039A43826082680A437C
:102B80008260704702460020D3690B40002B01D0C1
:102B9000012000E0002070470162704770B50246D6
:102BA0000B4600240021002500201E04350ED9B25A
:102BB00001268E403146012D02D11668314006E0D3
:102BC000022D02D15668314001E0966831401C0C5C
:102BD0000126A6403446D6693440002903D0002C93
:102BE00001D0012000E0002070BD10B500230022BC
:102BF0000B0C01249C402246026210BD074880470E
:102C000007480047FEE7FEE7FEE7FEE7FEE7FEE7D0
:102C100004480549054A064B704700004F0200086A
:102C2000C1000008F8020020F8080020F804002085
:102C3000F804002070B5044608E07D25ED0000E0B2
:102C40006D1E002DFCD1641EFEF761FB002CF4D13B
:102C500070BD000010B51620FE4908700C20FE491A
:102C600008700120FD49087002F09EFD10BDFC496E
:102C7000FC48FD4A11615061FC481146086500207E
:102C800048654B20000108660846406D88650021B4
:102C9000F74811625062F748116350631146086BA0
:102CA000496B0122D2075140EF4AD1639063002162
:102CB0009162D1620020114608648864704710B5A3
:102CC000FFF7C8FFFFF7D3FF0C20E3490870EA487D
:102CD0008088012189030843E74988800846808865
:102CE0000121C9030843E449888010BDE248808877
:102CF000012189038843E0498880084680880121B2
:102D0000C9038843DC4988800C20D3490870704788
:102D100010B58021D948FFF735FF01281FD1CF48D2
:102D2000807901281BD1D6480078D6490978884295
:102D30000CDAD548D24A1278815CD048FFF70EFEF3
:102D4000CF480078401CCE49087008E00020C349F5
:102D50008871CB490870CB490870CC49087010BD08
:102D600000B50346002B04D1C9490870BB4948830C
:102D70001BE0C82B19DCB94843831A21415E142992
:102D800002DA1420B5494883B4481A21415EC829A3
:102D900002DDC820B1494883BD480078002801D130
:102DA000FFF765FF0120BA49087000BD70B5044601
:102DB00021780906627812041143A27812021143A5
:102DC000E2781143084604F0CFFE0546284670BD60
:102DD000F0B5A3B004202290AC480078012801D0BF
:102DE00000F091FE9D4880790028F9D1A94800881B
:102DF0009A498881A8480088C8810846008A002826
:102E000033D00846408A00282FD0488A04F049FC75
:102E10000022A24B0191009004F09CF905910490CE
:102E20008E49088A04F03DFC00229D4B01910090E0
:102E300004F090F903910290059B049A04F034FC8D
:102E4000099108908549898A0A225143084604F06D
:102E500020FC07910690099B089A04F07BF90B91DE
:102E60000A9004F0D1FB7D4988757C48807D6328F9
:102E700002DD6320794988758A48007816287DD05C
:102E800008DC12280FD013282FD0142877D015284B
:102E900076D12AE1172874D0192873D0302872D03F
:102EA0003128F5D1B5E280480078022819D17D4853
:102EB00000787C4949784018C0B27A4989788842BC
:102EC0000BD17A480078012803D176494878FFF77A
:102ED00047FF00206D49087006E000206B4908702C
:102EE00002E00020694908702DE36F48007802284D
:102EF00078D16C4800786B4949784018C0B269496C
:102F0000897888426FD169480078012807D16548DF
:102F10004078C82803DC63494878FFF721FF9320F5
:102F2000594908706248007848704C488089887018
:102F30004A4880890012C8704848C08908714748CB
:102F4000C089001248714548008A88714348008A48
:102F50000012C8714148408A08724048408A0012F5
:102F600048723E48808A88723C48808A0012C87243
:102F70003A48807D08733948008B05E0E5E051E070
:102F8000DDE22DE1BDE210E248733448008B00120F
:102F900088733248408BC87342484078C82815DC93
:102FA00000200874012408E03748007C3649095D98
:102FB000401835490874601CC4B2102CF4DB112091
:102FC000304908700120254988712AE03548407849
:102FD000FF281BD1374800782B490874002048741B
:102FE00001240AE01AE015E02748407C2649095DE3
:102FF000401825494874601CC4B2112CF4DB12201F
:10300000204908700120154988710AE000201F49F5
:10301000087006E000201D49087002E000201B49EE
:10302000087090E22048007802285AD11D480078A4
:103030001C4949784018C0B21A49897888424CD155
:1030400000201A49087017494878FFF789FE942034
:103050000D4931E026000020C90000206001002059
:103060009A9999999999B93FC0010020E02E0000E2
:103070000000E03F0070C740402C01400038014094
:10308000EE0000202C000020380100202700002046
:10309000C60000203E0000203C00002000408F4081
:1030A000000024409001002044000020EF00002098
:1030B000CA000020C70000200870FC48408B487000
:1030C0000846007849784018F94988700320F94982
:1030D00008700120F549887106E00020F649087063
:1030E00002E00020F44908702DE2F448007802283C
:1030F00027D1F3480078F24949784018C0B2F04926
:103100008978884219D10120EE490870EC49487845
:10311000FFF726FE9520E6490870E448408B48708A
:103120000846007849784018E14988700320E14951
:1031300008700120DD49887106E00020DE49087032
:1031400002E00020DC490870FDE1DC48007802283C
:1031500042D1DB48407801283ED1D9480078D8498F
:1031600049784018C0B2D6498978884230D1962033
:10317000CF49087001204870082088700520C87069
:103180000871D149D14803F024FCD0482030007A9E
:10319000002803D03820C649487102E00020C44905
:1031A00048710020C2498871002408E0C048807935
:1031B000BF49095D4018BE498871601CC4B2062C25
:1031C000F4DB0720BB4908700120B849887106E08C
:1031D0000020B949087002E00020B7490870B2E148
:1031E000B6480078022803D00020B3490870AAE14D
:1031F000B3480078B24949784018C0B2B0498978DC
:1032000088427DD103F06EFA0D90B1480068002825
:1032100004D0AF490D98096841180D91AD48406A36
:1032200080B21090AC49088904F03BFA0B910A90E7
:10323000A949488904F035FA0022A84B039102906D
:1032400003F088FF07910690A349486804F050FBFB
:1032500005910490079B069A04F026FA09910890BC
:103260000B9B0A9A03F076FF0F910E90109804F0D2
:1032700018FA039102900F9B0E9A04F015FA00229F
:10328000974B0591049003F065FF099108900D9804
:1032900004F007FA0022934B039102900F990E98C5
:1032A00004F002FA01910090039B029A04F0FCF9E9
:1032B00000228B4B0591049003F04CFF0791069080
:1032C000099B089A03F016FF0B910A9004F09CF9F1
:1032D00005467C480078012807D179484078C828FD
:1032E00003DC77494878FFF73BFD97207049087069
:1032F0007D48007848706D48808988706B4800E090
:103300004FE080890012C8706848C089087167481A
:10331000C089001248716548008A88716348008A34
:103320000012C8716148408A08726048408A0012E1
:1033300048725E48808A88725C48808A0012C8722F
:103340005A48807D08735948008B48735748008B52
:10335000001288735548408BC87359484078C82874
:103360001FDC002008744D742804000E88742802A5
:10337000000EC874280E087500204875012408E066
:103380004B48407D4A49095D401849494875601CD1
:10339000C4B2152CF4DB16204649087001204349BD
:1033A0008871002044490870CDE0454800784449C0
:1033B000497848404249897806464E40404800785E
:1033C0003F49497840183E4989784018C7B23C487F
:1033D000C078B04219D13A480079B84215D137487F
:1033E0000078042811D1364840784049097888424D
:1033F00003D033484078002807D131488078C82866
:1034000003DC2F498878FFF7ABFC00202A490870BD
:1034100099E02B4800782A4949784840284989781A
:1034200006464E40264800782549497840182449E8
:1034300089784018C7B22248C078B0425DD1204890
:103440000079B84259D11D480078042855D11C484C
:103450004078002802D001284AD114E0184880782A
:103460002249097888420DD015488078002809D073
:103470001349887802F0D9FD012803D110488078DB
:103480001A49087000BFB120094908701748007830
:10349000487008460078497840180549887003202C
:1034A0000449087001200149887125E0600100206D
:1034B000380100202C0000202700002044000020BC
:1034C00090010020EF00002000F0000868020020BA
:1034D000BC000020004001403C02002000408F4022
:1034E0000080764000A0AF40CA000020C700002046
:1034F0000020FB49087000BF02E00020F849087076
:1035000021E0F8484078012818D1F64880781A2838
:1035100014D10020F24908709920F3490870F3484B
:10352000007848700846007849784018EE4988705D
:103530000320EF4908700120EE49887103E0002064
:10354000E749087000BF00BFE6480078A1287DD198
:10355000E4484078012804D005283DD0082876D1D9
:103560000AE2052003F0BEFA002834D0DD48807856
:1035700000280FD1E04803F092FA1C22DE491031F6
:103580006846FCF7E1FDDC480FC803F076FA01203D
:10359000229000E000BF00BF8A20D34908700120BC
:1035A0004870D048807888702298C87000200871D0
:1035B000002408E0CC480079CB49095D4018CA498D
:1035C0000871601CC4B2042CF4DB0520C8490870E3
:1035D0000120C849887101E21C2003F083FA002809
:1035E0007ED001212291BF48801CFFF7DFFB0C90A9
:1035F00004F058FAC1490860BA48801DFFF7D6FBAD
:103600000C9004F04FFABE490860B6480A30FFF744
:10361000CDFB0C9004F046FABA490860BA49002084
:10362000085E04F0A1FAB9490C900020085E04F08D
:103630009BFA0A90B14801680A9804F0B3FC0B9019
:103640000C9904F07FF91490149801E0C7E1C4E1EB
:1036500004F04EF9AE4AAF4B0B910A9004F0CCFB4C
:1036600009D3149804F044F9AB4AAC4B0B910A907F
:1036700004F0F4FB07D20321229118A8407F012116
:10368000084318A94877A6490020085E04F06CFAA0
:10369000A4490C900020085E04F066FA0A9098484D
:1036A00001680A9804F07EFC0B900C9904F04AF92A
:1036B0001490149804F01CF99B4A9C4B0B910A90AF
:1036C00004F09AFB09D3149804F012F9984A994B24
:1036D0000B910A9004F0C2FB0BD20320229000E071
:1036E000FCE085482030407A02210843824920319D
:1036F000487291490020085E04F036FA8F490C9018
:103700000020085E04F030FA0A907E4801680A98AA
:1037100004F048FC0B900C9904F014F914901498E0
:1037200004F0E6F8864A874B0B910A9004F064FB9C
:1037300009D3149804F0DCF8834A844B0B910A9067
:1037400004F08CFB09D2032022906B482030407A91
:103750000421084368492031487262480E30FFF75F
:1037600025FB0C9004F09EF921902199209120983E
:1037700004F0BEF8764A774B0B910A9004F03CFBBC
:1037800009D3209804F0B4F8734A744B0B910A9053
:1037900004F064FB0AD20320229057482030407A7C
:1037A0000821084354492031487201E020981390C1
:1037B0004C481230FFF7FAFA0C9004F073F921909C
:1037C00021992091209804F093F8654A654B0B915C
:1037D0000A9004F011FB09D3209804F089F8624A9A
:1037E000624B0B910A9004F039FB0AD2032022901D
:1037F00041482030407A102108433F492031487227
:1038000001E02098129037481630FFF7CFFA0C905D
:1038100004F048F92190219920915549209804F00D
:1038200097FB04D35348209904F092FB0AD203205B
:10383000229031482030407A102108432E4920310F
:10384000487201E0209811902298012838D12B4825
:103850000068294948602D48008848812A48008826
:10386000088127480068C8602E48008848822C4894
:1038700000880882234800682249086008460068DA
:103880001D4948612D48008848832B4800880883DB
:103890001398C86112980862119848621F2116484F
:1038A00020300172002118A841771C2212491031E2
:1038B0006846FCF749FC10480FC803F0DEF809E041
:1038C0001C220D4910316846FCF73EFC0A480FC81F
:1038D00003F0D3F80520229903F02AF97EE00000D6
:1038E000270000209001002038010020AF000020B8
:1038F0002C000020600100203C020020D4000020A9
:10390000D8000020DC000020E2000020E0000020C1
:10391000EB51B81E85737340A4703D0AD70F8240E7
:10392000E6000020E40000201E85EB51B8FE5D405B
:103930000BD7A3703DDA6B40EA000020E8000020BE
:10394000B437F8C264AAF03F501E166A4DF3FE3F2A
:10395000E1E63A7B80D4843FAD6824E09B57933FF7
:10396000E815716E50CCE63F344BFB416F2BF53FB1
:103970000000FAC30000FA43052003F0B3F8002862
:103980002AD08A20F84908700820487005208870DD
:103990000220C870F5488078052802D00120C87040
:1039A00004E00020F249086002F052FE0020EE49D7
:1039B0000871002408E0EC480079EB49095D4018E3
:1039C000E9490871601CC4B2042CF4DB0520E94904
:1039D00008700120E849887100E000BF84E0E348F6
:1039E0000078A2287CD1E54915A802F0F2FFDF4853
:1039F0004078022804D0052825D0092872D152E049
:103A0000042003F06FF800281CD08B20D6490870E2
:103A10000220487018A8007F88700020C870002419
:103A200008E0D148C078D049095D4018CE49C87037
:103A3000601CC4B2032CF4DB0420CE4908700120C2
:103A4000CD4988714FE0042003F04CF8002829D0BC
:103A50008B20C54908700520487001208870C8482F
:103A600000880012C870C64800780871C5480088F0
:103A700000124871C348007888710020C871002482
:103A800008E0B948C079B849095D4018B649C8711D
:103A9000601CC4B2072CF4DB0820B6490870012072
:103AA000B54988711FE0042003F01CF8002816D0E7
:103AB0000020B54908800120B44908708B20AA492C
:103AC0000870082048700846007849784018A649D0
:103AD00088700320A74908700120A749887102E077
:103AE00002E0FFE700BF00BF002404E000209F4980
:103AF0000855601CC4B22D2CF8DB9F488079002843
:103B000001D1A349087023B0F0BDF8B504460D46B5
:103B10001746A048046045609C4801789D4802F023
:103B200005FE9C48806D86B23046F8BD7CB50646E1
:103B30009948007800283DD1304603F0B2FD044694
:103B4000964A974B03F0B0FD0191009003F05CFDA5
:103B5000C6B294480078B04212DA92480078EB2856
:103B60000BDA9048007814308E49087008460078C7
:103B7000B04218DD0846067015E08A48067012E06B
:103B800088480078B0420EDD8648007814280ADDA7
:103B90008448007814388349087008460078B04299
:103BA00001DA084606707F4800787F4908700120D6
:103BB000794908707CBD024600290BD100207B4B5F
:103BC00018607B4B18807B4800884004400C794B80
:103BD00018802EE076480088102812DA73480068B2
:103BE0008018724B186072480088401C704B188017
:103BF0007048028000880123DB0318436D4B188056
:103C000017E06A4800688018684B1860184600681A
:103C10000003000C674B1880644800681B88C01ABA
:103C2000624B1860634800880123DB031843614B33
:103C30001880604800887047F8B505465E492846F8
:103C400004F0B0F900905D48416A009804F02EFA43
:103C500007465A48016A384603F074FE064603F0E8
:103C600047FF84B220B2002800DA00242046F8BDC5
:103C7000F1B58AB00A9803F014FD0022504B01916F
:103C8000009003F067FA059104904E48FFF7D4FFC7
:103C9000019003F006FD03910290059B049A03F046
:103CA00003FD0791069003F0AFFC86B20121344872
:103CB0000088FFF780FF08900121C9030898084099
:103CC00000282DD008984004400C08900A213E4856
:103CD000008802F0AEFF079003F046FF04463B4920
:103CE000204604F0B7F91BD20A9803F0DAFC002250
:103CF000334B0391029003F02DFA0022344B0591CF
:103D0000049003F0D1FC0791069003F039F80746C0
:103D10002146384603F016FE0790FFF78DFF064652
:103D20007D20C005FFF788FFB04204DD7D20C0057F
:103D3000FFF782FF0646134805882648008803F0EF
:103D4000B0FC254A254B0791069004F087F84BD22A
:103D50002348028829463046FFF7D7FE20490880CD
:103D600000202049087042E0380100209001002026
:103D7000B80000202C0000206001002000F00008A6
:103D80003A000020380000209A0000209C0000200B
:103D900027000020C00100205C0000202FDD240649
:103DA0008195F33FC90000205D000020F000002055
:103DB000F4000020F600002000007A443C020020BD
:103DC00000006940000020403E000020000040420A
:103DD00000005E4040000020DB2DCEA454699140DD
:103DE000C2000020B70000200120FE490870FE48F4
:103DF0000088FE4948630BB0F0BD10B501F0D4FC5B
:103E00007820F9490880F949486310BDF8B504469F
:103E1000F748008803F045FC05460022F54B04F006
:103E20001DF81BD2F448008803F03BFC0546012234
:103E3000F24B03F0E1FF11D21020204000280DD1F9
:103E4000EF480078401CEE490870084600780A28C0
:103E50000DDB002008701020044308E0E8480078DB
:103E6000002804DDE6480078401EE5490870082077
:103E70002040002823D1E34800887D2109018842A1
:103E80003CDBDD4800888721890088420DDDDE4863
:103E90000078401CDC490870084600780A282DDBB1
:103EA000002008700820044328E0D7480078002844
:103EB00024DDD5480078401ED34908701EE0CE4866
:103EC0000088FF21EB3188420FDACF480078401C90
:103ED000CD490870084600780A280FDB00200870DA
:103EE000082120468843044608E0C7480078002897
:103EF00004DDC5480078401EC3490870C3480078F7
:103F000001284CD10020C1490870802020400028A1
:103F10001BD1BF4800785F280DDDBE480078401CEB
:103F2000BC490870084600780A282BDB002008707E
:103F30008020044326E0B7480078002822DDB548F9
:103F40000078401EB34908701CE0B14800785A2838
:103F50000FDAB0480078401CAE4908700846007877
:103F60000A280FDD0020087080212046884304467F
:103F700008E0A8480078002804DDA6480078401E24
:103F8000A4490870A24800781821C943884202DA7F
:103F90004020044303E040212046884304469E48D5
:103FA0000078012849D19D49088A0A2102F041FE82
:103FB00007460220204000281ED1FF201E308742E5
:103FC00016D997480078002806D101209449087036
:103FD00000209449088017E0924800887D21C9009C
:103FE000884211DB0220044300208D4908700BE059
:103FF00000208B49087007E0FF201930874203D268
:104000000221204688430446E007C00F002807D15C
:10401000552F0FD20120044300208349088009E076
:104020005A2F07D9804800887D210901884201DB89
:10403000640864000020784908702046F8BDF0B597
:1040400087B00020069079480078C007C00F00288C
:104050006CD077480088774909784900764A5052F1
:1040600076480088734909784900754A505271486A
:104070000078401CC0B26F490870052801DB0020A1
:1040800008700024002505E060006B49085A4519B6
:10409000601CC4B2052CF7DB0521284602F0BFFDE9
:1040A00000B2684908800024002505E060006449EA
:1040B000085A4519601CC4B2052CF7DB05212846B7
:1040C00002F0ADFD00B26049088060490989584A94
:1040D00012885143084603F047FD05905748008871
:1040E00003F04AFD59490390488903F045FD0190CA
:1040F00056484168019803F055FF0290039903F078
:1041000051FF0490059903F01DFC0746504903F048
:1041100049FF064603F0ECFC404988824D48007890
:10412000012108434B490870012006903F48007860
:1041300002210840002840D04748008803F01CFDB9
:1041400042490390088A03F017FD0290039903F097
:1041500029FF05904148008803F00EFD3B4903907C
:10416000488A03F009FD01903848C168019803F0BE
:1041700019FF0290039903F015FF0490059903F0CD
:10418000E1FB0746324903F00DFF064603F0B0FCA1
:10419000224908823048008800B2314908802F48FF
:1041A000008800B22F4908802A480078022108437D
:1041B000284908700120069089E01C4800780421F5
:1041C000084000287ED02149098B274A1288514394
:1041D000084603F0C9FC04902448008803F0CCFC96
:1041E0001A4945E0B7000020C2000020000400404A
:1041F0003C00002000406F403E000020000048408E
:10420000F8000020B2000020F90000205800002033
:10421000CA000020FA000020C80000206001002031
:10422000FB000020B40000208A0000209D00002038
:104230006A000020FC00002028020020640000200A
:1042400032020020E0000020E20000203C020020BA
:1042500000002041C0000020660000206000002017
:10426000E4000020E600002068000020620000203A
:104270000390488B03F080FC0190F9484169019854
:1042800003F090FE0290039903F08CFE0746049918
:1042900003F058FBF349059003F084FE064603F053
:1042A00027FCF1494882F148008800B2F0490880B3
:1042B000F048008800B2F0490880F04800780421F6
:1042C000084300E003E0ED490870012006900698DD
:1042D00007B0F0BD7820EA4948637047F7B58CB065
:1042E0000D4614462646E7480088192149018842B0
:1042F0007DDB0020E34908800C9803F03DFC07902B
:1043000003F0F6FA0022E04B0991089002F022FF38
:104310000B910A9002F034FD0746DC49384603F061
:1043200017FE3CD2DA49384603F094FE28D22046E4
:1043300003F0B7F909910890D549384603F0B6FE65
:10434000D449009003F0FEFA019003F0D1FAD24A6A
:10435000D24B0391029003F0A7F9CF4A921CD04BA5
:104360000591049002F0C6FE07910690099B089AF9
:1043700003F09AF90B910A9003F046F9C4B20EE0EB
:10438000204603F08EF9C44A921CC54B099108904F
:1043900003F08AF90B910A9003F036F9C4B25A2D52
:1043A00012DB0120BF490870204603F07AF9BA4AAF
:1043B000921CBB4B0991089003F076F90B910A907F
:1043C00003F022F9C4B21AE0502D15DDB54800788B
:1043D000012814D1204603F064F9AF4A921CB04B77
:1043E0000991089003F060F90B910A9000E019E040
:1043F00003F00AF9C4B202E00020AA490870AA48F2
:104400000078A04205DAA8480078401CA649087048
:1044100008E0A5480078A04204DDA3480078401ECB
:10442000A1490870A1480078B04203D09F480670A7
:104430009D4804709C48067830460FB0F0BD70B5BA
:104440000246002419E0002012E04500565B451C9E
:104450006D00555BAE4209DD4500535B451C6D00A8
:10446000555B46009553451C6D005353451CE8B2FF
:104470004D1E8542E9DC651CECB24D1EA542E2DC16
:1044800070BD10B50246002004E000234400135321
:10449000431CD8B28842F8DB10BDF8B505460E467D
:1044A0000027002404E06000285AC719601CC4B229
:1044B000B442F8DB3146384602F0B1FB80B2F8BDB9
:1044C0007B48008880107A490880704790B00020AF
:1044D0000F90002500260E900990002701F029FA80
:1044E00001F054FA0A20FEF7A5FB01F0BAFC01F036
:1044F000F1FC01F088FA6F48808801218903884324
:104500006C498880084680880121C903884369492D
:10451000888001F05BFF6849086001F069F90821B3
:104520000AA8FFF7AEFF65494D4802F052FA4C4821
:104530000088052803D14A480088052818D0484833
:1045400002F0ADFAFCF721FB2520FCF7D8FD5B4813
:10455000FCF72EFB59481C22414910310790684650
:10456000FBF7F2FD3E480FC802F008FAFCF719FB12
:1045700002F064FA0120FEF75DFB01F001FC01F09E
:104580004EFC01F06EFBFEF765FB00204C49087005
:10459000474908804B490880012033490870C820EA
:1045A0004883012048490870FEF761FB01F06CFD6B
:1045B0004649087000200F90FFF78CFE402009212B
:1045C000C90688610A20FEF735FB41480089802131
:1045D00008433F4908816BE33E480078012827D112
:1045E0003D48008803F0C8FA06901D48C169069846
:1045F00003F0D8FC2749079003F0D4FC089003F09F
:1046000077FA364908803648008803F0B5FA0690F4
:104610001348016A069803F0C5FC07901048416AE8
:10462000079803F04FFC089003F062FA2D490880C8
:104630002D480088FF21F53188425CDB00202A49A3
:104640000880802122482038FCF712FE01284DD135
:10465000002280211E482038FCF71BFE4BE00000A2
:104660003C02002000007A44600100206800002025
:10467000E800002062000020EA000020C0000020C6
:10468000000400408C000020000024400000C842CC
:104690000000B44200002041989999999999C93F26
:1046A0009999E93FFD000020FE000020FF00002056
:1046B000C2000020402C0140B800002000F000089B
:1046C0005C000020C4000020C6000020C7000020BD
:1046D00020140048450000203A0000203E00002041
:1046E000380000203C0000209200002001228021A0
:1046F000FE48FCF7CEFDFCF70AFE0F98002806D016
:10470000012813D0022818D003287DD195E0F8485D
:10471000408BF849087001200F9001218007FDF7B8
:10472000CCFA0121F448FDF7C8FAAAE0F048408B22
:10473000F049087002200F90A3E0F04800780128AB
:104740003ED10020EE4908808021E848FCF790FD2A
:10475000012805D100228021E448FCF79AFD04E0FD
:1047600001228021E148FCF794FDE6480088FFF72C
:104770004DFBE449088008460088BF210840002816
:1047800012D00125DF4800881821084000280CD0ED
:104790000020DD4908804B204001DC4908800320CF
:1047A0000F90FFF72AFB00E00025D9480078012888
:1047B00003D1D0480078FFF75BFA0020CF4908709A
:1047C000D44800887D21C900884207DBCD48008895
:1047D000C74908830020D04908702DE0CF480078F1
:1047E000012829D1C2491A20085E08210840002862
:1047F00022D0CB48008802F054FF0022C94B079119
:10480000069003F02BFB00E03AE015D20020C349EC
:104810000870C14800780A280EDABF480078401CAA
:10482000BD490870084600780A2805DBBE480078B4
:1048300002210843BC49087023E0B34800887D2169
:10484000C90088421BDBAF48008810218843AD496E
:1048500008800846008808218843AA490880A4489F
:10486000408BA449087002200F90FEF700FA00F078
:1048700049FB0020A74908800120A849087000E0F2
:1048800000BF00BF9A480078002808D10A20FFF72F
:10489000EFF9FFF7B2FA9648408B96490870FFF798
:1048A000CEFB012801D1A1490870002F0CD1A048EE
:1048B000008802F0F6FE9F4A9F4B0791069003F096
:1048C0009BFA0DD201270BE09948008802F0E9FE1F
:1048D0009A4A9B4B0791069003F0C0FA00D200273A
:1048E000012F00D101259748007801281CD1964856
:1048F000007804210843944908707D480078002816
:1049000006D1002D04D1FEF7DAF9012078490870AC
:1049100077480078012816D1012D14D10020744960
:104920000870FEF7E3F90EE0874800780421884319
:1049300085490870FEF7DAF96D480078012802D140
:1049400000206B4908706A480078012806D17E482B
:104950000078022108437C49087005E07A48007815
:1049600002218843784908700020FBF7BEFE012130
:104970008903884206D1744800782021084372498F
:10498000087005E070480078202188436E4908705F
:104990005E4800886D49884206D96B4800788021BE
:1049A00008436949087005E067480078802188431A
:1049B00065490870554800880A2806DA6248007878
:1049C000402108436049087005E05F4800784021B5
:1049D00088435D490870FEF7FBF95D4800887D213A
:1049E0000901884217DB4249498BCAB24049088A0B
:1049F00058490978FFF772FC3E490870084600786C
:104A0000C82801DDC82008703A480078142802DA66
:104A10001420384908705048007801284EDB4F4870
:104A2000408886194D4884880E98401C80B20E90AC
:104A3000802823DB4A48008800B201F073FA019015
:104A400002F027FE474A484B0391029002F02CFEE9
:104A5000464A474B0591049002F04CFB07910690A3
:104A600002F0D2FD3B4908707002000C3C490880FE
:104A7000002600200E9001203E4908700998401C35
:104A8000C0B209902E280ADA6846008DA04212DAD8
:104A90006846048508210AA8FFF7D1FC0BE0002036
:104AA000099008210AA8FFF7F8FC2149088008218D
:104AB0000AA8FFF7E6FC0020274908702E48008866
:104AC0007D21C90088427DDB00202B4908800849F0
:104AD0001A20085E29490978884206D00448408B8C
:104AE000264908700020264908804BE00014004841
:104AF00060010020CB000020002C01404500002078
:104B000092000020C400002054000020C2000020B9
:104B1000CC00002098000020B1000020B000002050
:104B20003C00002000405F40AF000020C800002093
:104B300040000020DB2DCEA454696140B9101BEF6A
:104B4000E97F9240C600002089000020D62E000098
:104B50008E000020CA00002090000020800100206C
:104B600056000020E86A2BF697DDEB3FCDCCCCCC8D
:104B7000CCCCFF3F580000209E000020AE0000205B
:104B8000A20000204B480078012828D14A4800881C
:104B90000A2805DA48480088401C474908800CE08C
:104BA0004648018846480088401D814205DD454849
:104BB00000780121084343490870434800884B218D
:104BC000090100E010E0884204DA3F480088401CF8
:104BD0003D490880394800883949088004E00020B0
:104BE000394908803449088038480068002829D0AD
:104BF00037480078C007C00F002857D034480078E5
:104C000006210840002851D0324800682F49096821
:104C100040183049086000202C4908602D48006881
:104C200001F016FD2C480078400840002A49087021
:104C30000846007806218843274908700020244947
:104C4000087033E022480078C007C00F00280BD05E
:104C500021480078400840001F4908701C4800782F
:104C6000400840001A49087019480078042108409B
:104C700000280AD01848007888431749087014485B
:104C800000780421884312490870114800780221F5
:104C9000084000280AD01048007888430E49087060
:104CA0000B4800780221884309490870FEF730F864
:104CB00092E4000060010020A20000203E000020DD
:104CC000A0000020AF000020A4000020BC000020B5
:104CD000C0000020B80000209D00002010B58020FA
:104CE000FCF773FE002809D00120FCF7BBFB012173
:104CF0001820FCF754FE8020FCF772FE10BD00BFA8
:104D0000FEE700BFFEE77047704710B50820FCF7CC
:104D10005CFE00280AD00820FCF762FE1120FCF798
:104D2000A7FB002802D00120FCF767FC1020FCF74D
:104D30004CFE00280AD01020FCF752FE1920FCF788
:104D400097FB002802D00220FCF78AFC10BDFB482C
:104D50004069012149050840002805D00120F84993
:104D600008704005F54948610820F6490860704719
:104D700010B52021F448FDF705FF012823D1F248A2
:104D8000FDF7F0FDC4B2F1480078002817D1F048D3
:104D90000078162807D30020EE490870EC49087007
:104DA000ED4804700BE0EB480078401CE9490870BE
:104DB000084600782D2802DAE74809784454202173
:104DC000E148FDF7E9FE10BD10B52021E348FDF7ED
:104DD000D9FE012836D1E148FDF7C4FDC4B2E04850
:104DE000007800282AD1DF4800780A2819DDDE483B
:104DF00004700020DB4908700120DC49087009E0DC
:104E00000020D949D94A12788854D8480078401CE3
:104E1000D6490870D54800780828F1DB0020D3492E
:104E20000870D2480078082803DACF48CF490978BB
:104E30004454CE480078401CCC4908702021C74813
:104E4000FDF7AAFE10BDBD484069042108400028B6
:104E500002D00420B94948617047B8484069202110
:104E60000840002835D0C2480078012806D0022822
:104E70000BD003281AD0042827D11DE00020BD49FB
:104E800008800220BA4908701FE0BA480088401C18
:104E9000B8490880B8480088642803DD0520B44973
:104EA000087002E00320B24908700EE0B1480088A3
:104EB000401CB049088008E0AE480088401CAD495D
:104EC00008800520AA49087000BF00BF20209B4928
:104ED0004861704710B50121A848FDF7FAFA01288A
:104EE00003D10121A548FDF7F1FA10BDA348008ABE
:104EF00002210840002804D0A048008A88439F4926
:104F0000088270479E489F4908809F48008F9F49AC
:104F10000880704710B501218807FDF7DAFA0128EB
:104F200078D19B48048860009A49085A97490988B3
:104F3000884211DD95480088283094490880600037
:104F40009449085A9149098888421DDA60009149BC
:104F5000085A8E49088017E060008E49085A8B492C
:104F60000988884210DA89480088283887490880EB
:104F700060008849085A85490988884204DD600034
:104F80008449085A81490880804800887B49C86262
:104F900081480078401CC0B27F4908700A2801DDB2
:104FA000002008707D480078012829D17D2040012B
:104FB000844210DD71484030808801218903884394
:104FC0006E4940318880084680880121C9038843A2
:104FD0006A49403188807D204001844210DC674866
:104FE000403080880121890308436449403188802A
:104FF000084680880121C903084360494031888000
:105000005E48C06A40085D49486301218807FDF792
:105010005DFA00BF02214807FDF75BFA012803D1C2
:1050200002218007FDF752FA10BD10B502215C483D
:10503000FDF74FFA012803D102215948FDF746FA3E
:1050400001215748FDF745FA012803D101215448B1
:10505000FDF73CFA10BD10B501215248FDF739FAB1
:10506000012869D13F4800780A2832DA3D480078A3
:10507000401C3C490870084600780A2829D13A4863
:105080000078552820D138484078AA281CD13648C5
:1050900080783549C9780902401884B2012000039C
:1050A000844201DA404804802F4800792E4949792A
:1050B0000902401884B201200003844201DA3B480F
:1050C000048001202649087026480078401C2549A4
:1050D00008701F48007816280BD21D480078401C25
:1050E0001B49087008460078162802D1012017498C
:1050F00008702F4800887D21C900884204DA2C48B6
:105100000088401C2A4908802A480088FF212D3148
:10511000884204DA27480088401C2649088026482F
:10512000007801287ED125480078002848D0012841
:1051300064D0022877D19CE0D2E200000004014054
:105140000201002000240140003801402700002017
:105150002600002044000020900100200044004070
:105160004500002003010020040100200C01002064
:10517000110100201801002014010020002C014022
:10518000FF0F00001A010020BC9F00081C01002036
:10519000800100207C8100081E01002060010020A9
:1051A0000004004000100040380000203A000020B9
:1051B000540000205A0000205C0000201F01002045
:1051C000FA480088401C80B2F84908801E2803DA9B
:1051D0001020F749088110E00020F4490880F549C3
:1051E0000870F54908700120F4490870F448007807
:1051F000132109020843F349088050E0ED48007884
:1052000010282FDAEC48007800281ED11020E84939
:105210000881EC4800880121C9030840002807D014
:10522000102001E03CE039E00921C906886102E074
:105230001020E5490881E34800884004000CE1495A
:1052400008800120DC49087012E00020DA4908706B
:105250001020D74920398861D6480078401CD549AC
:10526000087005E01020D84908810220D349087051
:1052700015E0CE480088401C80B2CC4908801E282A
:1052800004DA1020CA492039886106E00020CB49A1
:105290000870C6490880CD49087000E000BF00BF13
:1052A000CB4800887D21C900884204DAC8480088BC
:1052B000401CC7490880C74800887D2109018842F1
:1052C00004DAC4480088401CC2490880C2480088EB
:1052D00019214901884204DABF480088401CBE49B0
:1052E0000880BE4800887D210901884204DABB4855
:1052F0000088401CB9490880B9480078012804DAC0
:10530000B7480078401CB6490870B6480088FF21AD
:10531000F531884204DAB3480088401CB14908805E
:10532000B14800887D210901884204DAAE4800882E
:10533000401CAD490880AD4800887D21C9008842E5
:1053400004DAAA480088401CA8490880A8480088B8
:105350007D21C900884204DAA5480088401CA44980
:105360000880A4480078002806D0012812D002281E
:1053700020D0032841D132E09F480078012808D18D
:1053800000209B49088001209A49087000209A4912
:10539000087036E0964800887D21C900884208DB05
:1053A0000020934908800220924908700020924909
:1053B000087026E08E4800887D21C90088420ADAFC
:1053C0008D480078012809D10020894908800320F0
:1053D0008849087002E000208649087011E087487B
:1053E0000078012805D1FDF742FC002081490870B2
:1053F00002E000207F49087003E000207D4908702A
:1054000000BF00BF7B4800787D49087001207D49BE
:1054100008707D4800887D21C900884204DA7A48F6
:105420000088401C7849088078480088784988427C
:105430000CDA76480088401C7449088008460088C9
:105440007349884202D1002072490870724800886E
:105450007D21C900884204DA6F480088401C6E49EB
:1054600008806E4800887D21C900884204DA6B48B4
:105470000088401C6949088069480078C007C00F4F
:1054800000284FD167480078030002F0A7FC06040B
:10549000230D0E1D374900206349088063490880A9
:1054A0000120604908703CE000BF5F480088401C54
:1054B0005D490880084600887D21C900884202DBDA
:1054C0000420584908702CE057480088401C564971
:1054D000088000BF55480088401C54490880084691
:1054E00000885349884208DD05204E490870012094
:1054F000504908804E484C49088012E04A480088CC
:105500004D4908804B4800884C4908804448007841
:10551000012108434249087000204249087000E018
:1055200000BF00BF3E4800780621084000283CD15B
:1055300043480078030002F051FC0705240E0F1EBB
:105540008BBDCD0000203F4908803F4908800120E5
:105550003B490870BFE000BF3A480088401C394909
:105560000880084600887D21C900884202DB0420AB
:1055700033490870AFE033480088401C3149088047
:1055800000BF31480088401C2F4908800846008829
:105590002749884208DD05202949087001202B4948
:1055A000088023482749088095E095E020010020E5
:1055B0002004004822010020230100201F010020B8
:1055C0005D00002024010020200000485C00002035
:1055D000860000208A0000208C0000208E00002021
:1055E0009000002092000020B2000020B4000020B3
:1055F000000100202C010020020100206001002099
:10560000B600002094000020980000209A0000209E
:10561000E8FD00009C000020840000209E00002087
:105620009D00002010010020120100202801002010
:1056300070170000160100206A000020640000209E
:1056400011010020140100202A010020180100206F
:105650000920C006808A40210840002811D0534804
:1056600000885349088053480088534908805348AC
:1056700000780221084351490870402050490881B0
:1056800011E04A4800884F4908804A4800884E493E
:1056900008804A480078042108434849087040209F
:1056A0000921C90688610020484908800620484928
:1056B000087010E045480088FF21F531884205DA7E
:1056C00042480088401C4149088002E000204049CF
:1056D000087000E000BF00BF01213E48FCF7F6FE65
:1056E00010BD10B502213C48FCF7F3FE012847D15C
:1056F00080213A48FBF7BCFD012805D1002280211A
:105700003648FBF7C6FD04E0012280213348FBF751
:10571000C0FD33480078012806D002280BD00328AA
:105720001AD0042827D11DE000202E49088002202D
:105730002B4908701FE02B480088401C294908802D
:1057400029480088642803DD05202549087002E007
:105750000320234908700EE022480088401C21499C
:10576000088008E01F480088401C1E49088005206A
:105770001B49087000BF00BF02211748FCF7A6FEB6
:1057800001211548FCF7A5FE01280CD11748006837
:10579000401C1649086001210F48FCF7ADFE0121AD
:1057A0000D48FCF793FE10BD704700001401002067
:1057B0006600002018010020600000209D000020ED
:1057C0002000004868000020620000202601002020
:1057D000110100200010004000400140001400486A
:1057E000100100201601002012010020BC00002042
:1057F0001CB5012123204004FCF77DF8892000908E
:1058000000216846C1710321017169460920C00663
:10581000FBF7BEFC02216846C17102200090694678
:105820000920C006FBF7B4FC202000900021684648
:10583000017169460920C006FBF7AAFC042000900C
:1058400002216846017169460920C006FBF7A0FCE9
:10585000002202210920C006FBF723FD4120800120
:10586000009001216846017169460920C006FBF7D6
:105870008FFCFF2001300090032168464171022116
:105880000171002181710121C17169460920C006A1
:10589000FBF77EFC022208210920C006FBF701FD70
:1058A00043204002009003216846417102210171AA
:1058B000002181710121C17169460920C006FBF7F1
:1058C00067FC01220921C806FBF7EBFC01220A2133
:1058D0000920C006FBF7E5FC01220F210920C006C4
:1058E000FBF7DFFCFE48009003216846417102216E
:1058F0000171002181710121C1716946F948FBF7ED
:1059000047FC02220D21F748FBF7CBFC01220421C2
:10591000F448FBF7C6FCC0200090032168464171A3
:1059200001210171002181716946EF48FBF730FCCC
:105930001CBD10B5FBF762FD0120FBF793FD00BF16
:10594000FBF7B8FD0128FBD1FBF704F90120FBF7B9
:10595000F5F80020FBF795FE0020FBF7A0FE0121E3
:1059600009050811FBF73AFE0120FBF746FE00BFD0
:105970001920FBF77DFD0028FAD00220FBF770FE0E
:1059800000BFFBF779FE0828FBD110BD08B50C213C
:10599000684601700021417001218170FBF7D4FC41
:1059A0001421684601700021417001218170FBF7CC
:1059B000CBFC0F2168460170012141708170FBF71B
:1059C000C3FC1121684601700221417001218170E0
:1059D000FBF7BAFC1B216846017001214170817000
:1059E000FBF7B2FC1C2168460170012141708170F7
:1059F000FBF7AAFC07216846017001214170817004
:105A0000FBF7A2FC08BD00B58FB00121C802FBF76F
:105A100080FFB648FCF766F8FF200B300D900021A0
:105A200068460186018741860CA9B048FCF7C0F89A
:105A30000021AE48FCF741F96021684681830121CD
:105A4000C1830421018485200990002168460185D5
:105A500041858185C18507A9A448FCF765F9012125
:105A6000A248FCF70CF90121A048FCF7D5FA022165
:105A70009E48FCF72BFD002202219C48FCF710FDFC
:105A800000219A48FCF719F901218903684601832E
:105A9000891081824900C18228214182002101822E
:105AA00001218902C1814900818103A98F48FCF746
:105AB00011F901218D48FCF726F901210804FBF7B3
:105AC00028FF8B48FCF70EF88A480D9000216846A5
:105AD0000186018741860CA98548FCF769F80121F8
